:100000000C9438000C9442000C9442000C94420072
:100010000C9442000C9442000C9442000C94420058
:100020000C9442000C9442000C9442000C94420048
:100030000C9442000C9442000C9442000C94420038
:100040000C9442000C9442000C9442000C94420028
:100050000C9442000C9442000C9442000C94420018
:100060000C9442000C9442000C9442000C94420008
:1000700011241FBECFEFD4E0DEBFCDBF0E944400ED
:100080000C9481000C940000899A9198FFCF91986C
:100090002AEA2A95F1F700C050E040E090E061E0E4
:1000A00070E0E2B39B01042E02C0220F331F0A94BA
:1000B000E2F728233923042E02C0359527950A94A8
:1000C000E2F72D6F2E2322BBE2B39C01042E02C067
:1000D000359527950A94E2F7220F331F2270ED7FA2
:1000E0002E2B22BB2AEA2A95F1F700C04F5F5F4F03
:1000F00048305105B1F6919A8AEA8A95F1F700C025
:060100000895F894FFCF02
:00000001FF
